{
  "contractName": "CallerContract",
  "abi": [
    {
      "anonymous": false,
      "inputs": [
        {
          "indexed": true,
          "internalType": "address",
          "name": "previousOwner",
          "type": "address"
        },
        {
          "indexed": true,
          "internalType": "address",
          "name": "newOwner",
          "type": "address"
        }
      ],
      "name": "OwnershipTransferred",
      "type": "event"
    },
    {
      "anonymous": false,
      "inputs": [
        {
          "indexed": false,
          "internalType": "uint256",
          "name": "ethPrice",
          "type": "uint256"
        },
        {
          "indexed": false,
          "internalType": "uint256",
          "name": "id",
          "type": "uint256"
        }
      ],
      "name": "PriceUpdatedEvent",
      "type": "event"
    },
    {
      "anonymous": false,
      "inputs": [
        {
          "indexed": false,
          "internalType": "uint256",
          "name": "id",
          "type": "uint256"
        }
      ],
      "name": "ReceivedNewRequestIdEvent",
      "type": "event"
    },
    {
      "anonymous": false,
      "inputs": [
        {
          "indexed": false,
          "internalType": "address",
          "name": "oracleAddress",
          "type": "address"
        }
      ],
      "name": "newOracleAddressEvent",
      "type": "event"
    },
    {
      "inputs": [],
      "name": "isOwner",
      "outputs": [
        {
          "internalType": "bool",
          "name": "",
          "type": "bool"
        }
      ],
      "stateMutability": "view",
      "type": "function"
    },
    {
      "inputs": [],
      "name": "owner",
      "outputs": [
        {
          "internalType": "address",
          "name": "",
          "type": "address"
        }
      ],
      "stateMutability": "view",
      "type": "function"
    },
    {
      "inputs": [],
      "name": "renounceOwnership",
      "outputs": [],
      "stateMutability": "nonpayable",
      "type": "function"
    },
    {
      "inputs": [
        {
          "internalType": "address",
          "name": "newOwner",
          "type": "address"
        }
      ],
      "name": "transferOwnership",
      "outputs": [],
      "stateMutability": "nonpayable",
      "type": "function"
    },
    {
      "inputs": [
        {
          "internalType": "address",
          "name": "_oracleInstanceAddress",
          "type": "address"
        }
      ],
      "name": "setOracleInstanceAddress",
      "outputs": [],
      "stateMutability": "nonpayable",
      "type": "function"
    },
    {
      "inputs": [],
      "name": "updateEthPrice",
      "outputs": [],
      "stateMutability": "nonpayable",
      "type": "function"
    },
    {
      "inputs": [
        {
          "internalType": "uint256",
          "name": "_ethPrice",
          "type": "uint256"
        },
        {
          "internalType": "uint256",
          "name": "_id",
          "type": "uint256"
        }
      ],
      "name": "callback",
      "outputs": [],
      "stateMutability": "nonpayable",
      "type": "function"
    }
  ],
  "bytecode": "0x608060405234801561000f575f80fd5b50335f806101000a81548173ffffffffffffffffffffffffffffffffffffffff021916908373ffffffffffffffffffffffffffffffffffffffff1602179055505f8054906101000a900473ffffffffffffffffffffffffffffffffffffffff1673ffffffffffffffffffffffffffffffffffffffff165f73ffffffffffffffffffffffffffffffffffffffff167f8be0079c531659141344cd1fd0a4f28419497f9722a3daafe3b4186f6b6457e060405160405180910390a3610a0d806100d55f395ff3fe608060405234801561000f575f80fd5b506004361061007b575f3560e01c80638f32d59b116100595780638f32d59b146100b1578063b5d73ba4146100cf578063e9e17a9e146100eb578063f2fde38b146101075761007b565b806323c7e4a21461007f578063715018a6146100895780638da5cb5b14610093575b5f80fd5b610087610123565b005b610091610218565b005b61009b6102e2565b6040516100a89190610707565b60405180910390f35b6100b9610309565b6040516100c6919061073a565b60405180910390f35b6100e960048036038101906100e4919061078a565b61035e565b005b610105600480360381019061010091906107f2565b6104ae565b005b610121600480360381019061011c91906107f2565b6105ba565b005b5f60025f9054906101000a900473ffffffffffffffffffffffffffffffffffffffff1673ffffffffffffffffffffffffffffffffffffffff166330c0b9ec6040518163ffffffff1660e01b81526004016020604051808303815f875af115801561018f573d5f803e3d5ffd5b505050506040513d601f19601f820116820180604052508101906101b39190610831565b9050600160045f8381526020019081526020015f205f6101000a81548160ff0219169083151502179055507f3ed150819af981e387450beb90ec379b8b322150dbb299d492b108c59a623e4b8160405161020d919061086b565b60405180910390a150565b610220610309565b610228575f80fd5b5f73ffffffffffffffffffffffffffffffffffffffff165f8054906101000a900473ffffffffffffffffffffffffffffffffffffffff1673ffffffffffffffffffffffffffffffffffffffff167f8be0079c531659141344cd1fd0a4f28419497f9722a3daafe3b4186f6b6457e060405160405180910390a35f805f6101000a81548173ffffffffffffffffffffffffffffffffffffffff021916908373ffffffffffffffffffffffffffffffffffffffff160217905550565b5f805f9054906101000a900473ffffffffffffffffffffffffffffffffffffffff16905090565b5f805f9054906101000a900473ffffffffffffffffffffffffffffffffffffffff1673ffffffffffffffffffffffffffffffffffffffff163373ffffffffffffffffffffffffffffffffffffffff1614905090565b60035f9054906101000a900473ffffffffffffffffffffffffffffffffffffffff1673ffffffffffffffffffffffffffffffffffffffff163373ffffffffffffffffffffffffffffffffffffffff16146103ed576040517f08c379a00000000000000000000000000000000000000000000000000000000081526004016103e490610904565b60405180910390fd5b60045f8281526020019081526020015f205f9054906101000a900460ff1661044a576040517f08c379a000000000000000000000000000000000000000000000000000000000815260040161044190610992565b60405180910390fd5b8160018190555060045f8281526020019081526020015f205f6101000a81549060ff02191690557f6b69e4f2aedf7e65a79ecaf16e8869b2b99c87e341f2c51286bfd4a7fc3b996982826040516104a29291906109b0565b60405180910390a15050565b6104b6610309565b6104be575f80fd5b8060035f6101000a81548173ffffffffffffffffffffffffffffffffffffffff021916908373ffffffffffffffffffffffffffffffffffffffff16021790555060035f9054906101000a900473ffffffffffffffffffffffffffffffffffffffff1660025f6101000a81548173ffffffffffffffffffffffffffffffffffffffff021916908373ffffffffffffffffffffffffffffffffffffffff1602179055507f441e3b056b114797955165bd03bb8393fc1658a713f09225de4745a8d068bf7d60035f9054906101000a900473ffffffffffffffffffffffffffffffffffffffff166040516105af9190610707565b60405180910390a150565b6105c2610309565b6105ca575f80fd5b6105d3816105d6565b50565b5f73ffffffffffffffffffffffffffffffffffffffff168173ffffffffffffffffffffffffffffffffffffffff160361060d575f80fd5b8073ffffffffffffffffffffffffffffffffffffffff165f8054906101000a900473ffffffffffffffffffffffffffffffffffffffff1673ffffffffffffffffffffffffffffffffffffffff167f8be0079c531659141344cd1fd0a4f28419497f9722a3daafe3b4186f6b6457e060405160405180910390a3805f806101000a81548173ffffffffffffffffffffffffffffffffffffffff021916908373ffffffffffffffffffffffffffffffffffffffff16021790555050565b5f73ffffffffffffffffffffffffffffffffffffffff82169050919050565b5f6106f1826106c8565b9050919050565b610701816106e7565b82525050565b5f60208201905061071a5f8301846106f8565b92915050565b5f8115159050919050565b61073481610720565b82525050565b5f60208201905061074d5f83018461072b565b92915050565b5f80fd5b5f819050919050565b61076981610757565b8114610773575f80fd5b50565b5f8135905061078481610760565b92915050565b5f80604083850312156107a05761079f610753565b5b5f6107ad85828601610776565b92505060206107be85828601610776565b9150509250929050565b6107d1816106e7565b81146107db575f80fd5b50565b5f813590506107ec816107c8565b92915050565b5f6020828403121561080757610806610753565b5b5f610814848285016107de565b91505092915050565b5f8151905061082b81610760565b92915050565b5f6020828403121561084657610845610753565b5b5f6108538482850161081d565b91505092915050565b61086581610757565b82525050565b5f60208201905061087e5f83018461085c565b92915050565b5f82825260208201905092915050565b7f596f7520617265206e6f7420617574686f72697a656420746f2063616c6c20745f8201527f6869732066756e6374696f6e2e00000000000000000000000000000000000000602082015250565b5f6108ee602d83610884565b91506108f982610894565b604082019050919050565b5f6020820190508181035f83015261091b816108e2565b9050919050565b7f546869732072657175657374206973206e6f7420696e206d792070656e64696e5f8201527f67206c6973742e00000000000000000000000000000000000000000000000000602082015250565b5f61097c602783610884565b915061098782610922565b604082019050919050565b5f6020820190508181035f8301526109a981610970565b9050919050565b5f6040820190506109c35f83018561085c565b6109d0602083018461085c565b939250505056fea26469706673582212208026835cadd059210bf72d8483661b5732a70263af2c710110aca5541923592364736f6c63430008150033",
  "immutableReferences": {},
  "source": "pragma solidity 0.8.21;\r\nimport \"./EthPriceOracleInterface.sol\";\r\nimport \"./openzeppelin-solidity/contracts/ownership/Ownable.sol\";\r\ncontract CallerContract is Ownable {\r\n    uint256 private ethPrice;\r\n    EthPriceOracleInterface private oracleInstance;\r\n    address private oracleAddress;\r\n    mapping(uint256=>bool) myRequests;\r\n    event newOracleAddressEvent(address oracleAddress);\r\n    event ReceivedNewRequestIdEvent(uint256 id);\r\n    event PriceUpdatedEvent(uint256 ethPrice, uint256 id);\r\n    function setOracleInstanceAddress (address _oracleInstanceAddress) public onlyOwner {\r\n      oracleAddress = _oracleInstanceAddress;\r\n      oracleInstance = EthPriceOracleInterface(oracleAddress);\r\n      emit newOracleAddressEvent(oracleAddress);\r\n    }\r\n    function updateEthPrice() public {\r\n      uint256 id = oracleInstance.getLatestEthPrice();\r\n      myRequests[id] = true;\r\n      emit ReceivedNewRequestIdEvent(id);\r\n    }\r\n    function callback(uint256 _ethPrice, uint256 _id) public onlyOracle {\r\n      require(myRequests[_id], \"This request is not in my pending list.\");\r\n      ethPrice = _ethPrice;\r\n      delete myRequests[_id];\r\n      emit PriceUpdatedEvent(_ethPrice, _id);\r\n    }\r\n    modifier onlyOracle() {\r\n      require(msg.sender == oracleAddress, \"You are not authorized to call this function.\");\r\n      _;\r\n    }\r\n}\r\n",
  "sourcePath": "/mnt/d/Ethereum/CryptoZombies_LVL2/EthPriceOracle/caller/contracts/CallerContract.sol",
  "compiler": {
    "name": "solc",
    "version": "0.8.21+commit.d9974bed.Emscripten.clang"
  },
  "schemaVersion": "3.4.16",
  "updatedAt": "2024-08-18T16:30:26.327Z",
  "devdoc": {
    "kind": "dev",
    "methods": {
      "isOwner()": {
        "returns": {
          "_0": "true if `msg.sender` is the owner of the contract."
        }
      },
      "owner()": {
        "returns": {
          "_0": "the address of the owner."
        }
      },
      "renounceOwnership()": {
        "details": "Allows the current owner to relinquish control of the contract."
      },
      "transferOwnership(address)": {
        "details": "Allows the current owner to transfer control of the contract to a newOwner.",
        "params": {
          "newOwner": "The address to transfer ownership to."
        }
      }
    },
    "version": 1
  },
  "userdoc": {
    "kind": "user",
    "methods": {
      "renounceOwnership()": {
        "notice": "Renouncing to ownership will leave the contract without an owner. It will not be possible to call the functions with the `onlyOwner` modifier anymore."
      }
    },
    "version": 1
  }
}