{
  "contractName": "EthPriceOracle",
  "abi": [
    {
      "anonymous": false,
      "inputs": [
        {
          "indexed": false,
          "internalType": "address",
          "name": "callerAddress",
          "type": "address"
        },
        {
          "indexed": false,
          "internalType": "uint256",
          "name": "id",
          "type": "uint256"
        }
      ],
      "name": "GetLatestEthPriceEvent",
      "type": "event"
    },
    {
      "anonymous": false,
      "inputs": [
        {
          "indexed": true,
          "internalType": "address",
          "name": "previousOwner",
          "type": "address"
        },
        {
          "indexed": true,
          "internalType": "address",
          "name": "newOwner",
          "type": "address"
        }
      ],
      "name": "OwnershipTransferred",
      "type": "event"
    },
    {
      "anonymous": false,
      "inputs": [
        {
          "indexed": false,
          "internalType": "uint256",
          "name": "ethPrice",
          "type": "uint256"
        },
        {
          "indexed": false,
          "internalType": "address",
          "name": "callerAddress",
          "type": "address"
        }
      ],
      "name": "SetLatestEthPriceEvent",
      "type": "event"
    },
    {
      "inputs": [],
      "name": "isOwner",
      "outputs": [
        {
          "internalType": "bool",
          "name": "",
          "type": "bool"
        }
      ],
      "stateMutability": "view",
      "type": "function"
    },
    {
      "inputs": [],
      "name": "owner",
      "outputs": [
        {
          "internalType": "address",
          "name": "",
          "type": "address"
        }
      ],
      "stateMutability": "view",
      "type": "function"
    },
    {
      "inputs": [],
      "name": "renounceOwnership",
      "outputs": [],
      "stateMutability": "nonpayable",
      "type": "function"
    },
    {
      "inputs": [
        {
          "internalType": "address",
          "name": "newOwner",
          "type": "address"
        }
      ],
      "name": "transferOwnership",
      "outputs": [],
      "stateMutability": "nonpayable",
      "type": "function"
    },
    {
      "inputs": [],
      "name": "getLatestEthPrice",
      "outputs": [
        {
          "internalType": "uint256",
          "name": "",
          "type": "uint256"
        }
      ],
      "stateMutability": "nonpayable",
      "type": "function"
    },
    {
      "inputs": [
        {
          "internalType": "uint256",
          "name": "_ethPrice",
          "type": "uint256"
        },
        {
          "internalType": "address",
          "name": "_callerAddress",
          "type": "address"
        },
        {
          "internalType": "uint256",
          "name": "_id",
          "type": "uint256"
        }
      ],
      "name": "setLatestEthPrice",
      "outputs": [],
      "stateMutability": "nonpayable",
      "type": "function"
    }
  ],
  "bytecode": "0x60806040525f6001556103e8600255348015610019575f80fd5b50335f806101000a81548173ffffffffffffffffffffffffffffffffffffffff021916908373ffffffffffffffffffffffffffffffffffffffff1602179055505f8054906101000a900473ffffffffffffffffffffffffffffffffffffffff1673ffffffffffffffffffffffffffffffffffffffff165f73ffffffffffffffffffffffffffffffffffffffff167f8be0079c531659141344cd1fd0a4f28419497f9722a3daafe3b4186f6b6457e060405160405180910390a3610996806100df5f395ff3fe608060405234801561000f575f80fd5b5060043610610060575f3560e01c806330c0b9ec14610064578063715018a6146100825780638da5cb5b1461008c5780638f32d59b146100aa578063cf642f1f146100c8578063f2fde38b146100e4575b5f80fd5b61006c610100565b6040516100799190610564565b60405180910390f35b61008a6101c0565b005b61009461028a565b6040516100a191906105bc565b60405180910390f35b6100b26102b1565b6040516100bf91906105ef565b60405180910390f35b6100e260048036038101906100dd9190610660565b610306565b005b6100fe60048036038101906100f991906106b0565b61043e565b005b5f60015f81548092919061011390610708565b91905055505f6002544233600154604051602001610133939291906107b4565b604051602081830303815290604052805190602001205f1c610155919061081d565b9050600160035f8381526020019081526020015f205f6101000a81548160ff0219169083151502179055507f3d50a0c24e97813f35595d2f1f37dbf421d5e97f37abd4e222853e9b9c82c8d533826040516101b192919061084d565b60405180910390a18091505090565b6101c86102b1565b6101d0575f80fd5b5f73ffffffffffffffffffffffffffffffffffffffff165f8054906101000a900473ffffffffffffffffffffffffffffffffffffffff1673ffffffffffffffffffffffffffffffffffffffff167f8be0079c531659141344cd1fd0a4f28419497f9722a3daafe3b4186f6b6457e060405160405180910390a35f805f6101000a81548173ffffffffffffffffffffffffffffffffffffffff021916908373ffffffffffffffffffffffffffffffffffffffff160217905550565b5f805f9054906101000a900473ffffffffffffffffffffffffffffffffffffffff16905090565b5f805f9054906101000a900473ffffffffffffffffffffffffffffffffffffffff1673ffffffffffffffffffffffffffffffffffffffff163373ffffffffffffffffffffffffffffffffffffffff1614905090565b61030e6102b1565b610316575f80fd5b60035f8281526020019081526020015f205f9054906101000a900460ff16610373576040517f08c379a000000000000000000000000000000000000000000000000000000000815260040161036a906108f4565b60405180910390fd5b60035f8281526020019081526020015f205f6101000a81549060ff02191690555f8290508073ffffffffffffffffffffffffffffffffffffffff1663b5d73ba485846040518363ffffffff1660e01b81526004016103d2929190610912565b5f604051808303815f87803b1580156103e9575f80fd5b505af11580156103fb573d5f803e3d5ffd5b505050507f91b860381268a473101de3379abbb70abf7ea6c9d1735cf58b9816479ff3b7278484604051610430929190610939565b60405180910390a150505050565b6104466102b1565b61044e575f80fd5b6104578161045a565b50565b5f73ffffffffffffffffffffffffffffffffffffffff168173ffffffffffffffffffffffffffffffffffffffff1603610491575f80fd5b8073ffffffffffffffffffffffffffffffffffffffff165f8054906101000a900473ffffffffffffffffffffffffffffffffffffffff1673ffffffffffffffffffffffffffffffffffffffff167f8be0079c531659141344cd1fd0a4f28419497f9722a3daafe3b4186f6b6457e060405160405180910390a3805f806101000a81548173ffffffffffffffffffffffffffffffffffffffff021916908373ffffffffffffffffffffffffffffffffffffffff16021790555050565b5f819050919050565b61055e8161054c565b82525050565b5f6020820190506105775f830184610555565b92915050565b5f73ffffffffffffffffffffffffffffffffffffffff82169050919050565b5f6105a68261057d565b9050919050565b6105b68161059c565b82525050565b5f6020820190506105cf5f8301846105ad565b92915050565b5f8115159050919050565b6105e9816105d5565b82525050565b5f6020820190506106025f8301846105e0565b92915050565b5f80fd5b6106158161054c565b811461061f575f80fd5b50565b5f813590506106308161060c565b92915050565b61063f8161059c565b8114610649575f80fd5b50565b5f8135905061065a81610636565b92915050565b5f805f6060848603121561067757610676610608565b5b5f61068486828701610622565b93505060206106958682870161064c565b92505060406106a686828701610622565b9150509250925092565b5f602082840312156106c5576106c4610608565b5b5f6106d28482850161064c565b91505092915050565b7f4e487b71000000000000000000000000000000000000000000000000000000005f52601160045260245ffd5b5f6107128261054c565b91507fffffffffffffffffffffffffffffffffffffffffffffffffffffffffffffffff8203610744576107436106db565b5b600182019050919050565b5f819050919050565b6107696107648261054c565b61074f565b82525050565b5f8160601b9050919050565b5f6107858261076f565b9050919050565b5f6107968261077b565b9050919050565b6107ae6107a98261059c565b61078c565b82525050565b5f6107bf8286610758565b6020820191506107cf828561079d565b6014820191506107df8284610758565b602082019150819050949350505050565b7f4e487b71000000000000000000000000000000000000000000000000000000005f52601260045260245ffd5b5f6108278261054c565b91506108328361054c565b925082610842576108416107f0565b5b828206905092915050565b5f6040820190506108605f8301856105ad565b61086d6020830184610555565b9392505050565b5f82825260208201905092915050565b7f546869732072657175657374206973206e6f7420696e206d792070656e64696e5f8201527f67206c6973742e00000000000000000000000000000000000000000000000000602082015250565b5f6108de602783610874565b91506108e982610884565b604082019050919050565b5f6020820190508181035f83015261090b816108d2565b9050919050565b5f6040820190506109255f830185610555565b6109326020830184610555565b9392505050565b5f60408201905061094c5f830185610555565b61095960208301846105ad565b939250505056fea264697066735822122006c20d4f97e7fb811265352121d6252b7a192ddd8c69388e2565aeb6350497f364736f6c63430008150033",
  "immutableReferences": {},
  "source": "// SPDX-License-Identifier: UNLICENSED\r\n\r\npragma solidity ^0.8.21;\r\nimport \"./openzeppelin-solidity/contracts/ownership/Ownable.sol\";\r\nimport \"./CallerContractInterface.sol\";\r\ncontract EthPriceOracle is Ownable {\r\n  uint private randNonce = 0;\r\n  uint private modulus = 1000;\r\n  mapping(uint256=>bool) pendingRequests;\r\n  event GetLatestEthPriceEvent(address callerAddress, uint id);\r\n  event SetLatestEthPriceEvent(uint256 ethPrice, address callerAddress);\r\n  function getLatestEthPrice() public returns (uint256) {\r\n    randNonce++;\r\n    uint id = uint(keccak256(abi.encodePacked(block.timestamp, msg.sender, randNonce))) % modulus;\r\n    pendingRequests[id] = true;\r\n    emit GetLatestEthPriceEvent(msg.sender, id);\r\n    return id;\r\n  }\r\n  function setLatestEthPrice(uint256 _ethPrice, address _callerAddress,   uint256 _id) public onlyOwner {\r\n    require(pendingRequests[_id], \"This request is not in my pending list.\");\r\n    delete pendingRequests[_id];\r\n    // Start here\r\n    CallerContractInterface  callerContractInstance;\r\n\r\n    callerContractInstance = CallerContractInterface(_callerAddress);\r\n    callerContractInstance.callback(_ethPrice, _id);\r\n    emit SetLatestEthPriceEvent(_ethPrice, _callerAddress);\r\n\r\n\r\n  }\r\n}\r\n",
  "sourcePath": "D:\\Ethereum\\CryptoZombies_LVL2\\EthPriceOracle\\oracle\\contracts\\EtherPriceOracle.sol",
  "compiler": {
    "name": "solc",
    "version": "0.8.21+commit.d9974bed.Emscripten.clang"
  },
  "schemaVersion": "3.4.16",
  "updatedAt": "2024-08-18T15:14:13.912Z",
  "devdoc": {
    "kind": "dev",
    "methods": {
      "isOwner()": {
        "returns": {
          "_0": "true if `msg.sender` is the owner of the contract."
        }
      },
      "owner()": {
        "returns": {
          "_0": "the address of the owner."
        }
      },
      "renounceOwnership()": {
        "details": "Allows the current owner to relinquish control of the contract."
      },
      "transferOwnership(address)": {
        "details": "Allows the current owner to transfer control of the contract to a newOwner.",
        "params": {
          "newOwner": "The address to transfer ownership to."
        }
      }
    },
    "version": 1
  },
  "userdoc": {
    "kind": "user",
    "methods": {
      "renounceOwnership()": {
        "notice": "Renouncing to ownership will leave the contract without an owner. It will not be possible to call the functions with the `onlyOwner` modifier anymore."
      }
    },
    "version": 1
  }
}